{
  "contractName": "Market",
  "abi": [
    {
      "anonymous": false,
      "inputs": [
        {
          "indexed": false,
          "internalType": "uint256",
          "name": "listingID",
          "type": "uint256"
        },
        {
          "indexed": false,
          "internalType": "address",
          "name": "seller",
          "type": "address"
        }
      ],
      "name": "Cancel",
      "type": "event"
    },
    {
      "anonymous": false,
      "inputs": [
        {
          "indexed": false,
          "internalType": "uint256",
          "name": "listingID",
          "type": "uint256"
        },
        {
          "indexed": false,
          "internalType": "address",
          "name": "seller",
          "type": "address"
        },
        {
          "indexed": false,
          "internalType": "address",
          "name": "token",
          "type": "address"
        },
        {
          "indexed": false,
          "internalType": "uint256",
          "name": "tokenID",
          "type": "uint256"
        },
        {
          "indexed": false,
          "internalType": "uint256",
          "name": "price",
          "type": "uint256"
        }
      ],
      "name": "Listed",
      "type": "event"
    },
    {
      "anonymous": false,
      "inputs": [
        {
          "indexed": false,
          "internalType": "uint256",
          "name": "listingID",
          "type": "uint256"
        },
        {
          "indexed": false,
          "internalType": "address",
          "name": "seller",
          "type": "address"
        },
        {
          "indexed": false,
          "internalType": "address",
          "name": "buyer",
          "type": "address"
        },
        {
          "indexed": false,
          "internalType": "address",
          "name": "token",
          "type": "address"
        },
        {
          "indexed": false,
          "internalType": "uint256",
          "name": "tokenID",
          "type": "uint256"
        },
        {
          "indexed": false,
          "internalType": "uint256",
          "name": "price",
          "type": "uint256"
        }
      ],
      "name": "Sale",
      "type": "event"
    },
    {
      "inputs": [
        {
          "internalType": "address",
          "name": "token",
          "type": "address"
        },
        {
          "internalType": "uint256",
          "name": "tokenID",
          "type": "uint256"
        },
        {
          "internalType": "uint256",
          "name": "price",
          "type": "uint256"
        }
      ],
      "name": "listToken",
      "outputs": [],
      "stateMutability": "nonpayable",
      "type": "function"
    },
    {
      "inputs": [
        {
          "internalType": "uint256",
          "name": "listingID",
          "type": "uint256"
        }
      ],
      "name": "getListing",
      "outputs": [
        {
          "components": [
            {
              "internalType": "enum Market.ListingStatus",
              "name": "status",
              "type": "uint8"
            },
            {
              "internalType": "address",
              "name": "seller",
              "type": "address"
            },
            {
              "internalType": "address",
              "name": "token",
              "type": "address"
            },
            {
              "internalType": "uint256",
              "name": "tokenID",
              "type": "uint256"
            },
            {
              "internalType": "uint256",
              "name": "price",
              "type": "uint256"
            }
          ],
          "internalType": "struct Market.Listing",
          "name": "",
          "type": "tuple"
        }
      ],
      "stateMutability": "view",
      "type": "function",
      "constant": true
    },
    {
      "inputs": [
        {
          "internalType": "uint256",
          "name": "listingID",
          "type": "uint256"
        }
      ],
      "name": "buyToken",
      "outputs": [],
      "stateMutability": "payable",
      "type": "function",
      "payable": true
    },
    {
      "inputs": [
        {
          "internalType": "uint256",
          "name": "listingID",
          "type": "uint256"
        }
      ],
      "name": "cancel",
      "outputs": [],
      "stateMutability": "nonpayable",
      "type": "function"
    }
  ],
  "bytecode": "0x60806040526000805534801561001457600080fd5b5061107c806100246000396000f3fe60806040526004361061005c576000357c010000000000000000000000000000000000000000000000000000000090048063107a274a146100615780632d296bf11461009e57806340e58ee5146100ba5780637e07590d146100e3575b600080fd5b34801561006d57600080fd5b5061008860048036038101906100839190610ae6565b61010c565b6040516100959190610c42565b60405180910390f35b6100b860048036038101906100b39190610ae6565b610234565b005b3480156100c657600080fd5b506100e160048036038101906100dc9190610ae6565b610580565b005b3480156100ef57600080fd5b5061010a60048036038101906101059190610c89565b610806565b005b610114610a3e565b600160008381526020019081526020016000206040518060a00160405290816000820160009054906101000a900460ff16600281111561015757610156610b13565b5b600281111561016957610168610b13565b5b81526020016000820160019054906101000a900473ffffffffffffffffffffffffffffffffffffffff1673ffffffffffffffffffffffffffffffffffffffff1673ffffffffffffffffffffffffffffffffffffffff1681526020016001820160009054906101000a900473ffffffffffffffffffffffffffffffffffffffff1673ffffffffffffffffffffffffffffffffffffffff1673ffffffffffffffffffffffffffffffffffffffff168152602001600282015481526020016003820154815250509050919050565b60006001600083815260200190815260200160002090508060000160019054906101000a900473ffffffffffffffffffffffffffffffffffffffff1673ffffffffffffffffffffffffffffffffffffffff163373ffffffffffffffffffffffffffffffffffffffff16036102dd576040517f08c379a00000000000000000000000000000000000000000000000000000000081526004016102d490610d39565b60405180910390fd5b600060028111156102f1576102f0610b13565b5b8160000160009054906101000a900460ff16600281111561031557610314610b13565b5b14610355576040517f08c379a000000000000000000000000000000000000000000000000000000000815260040161034c90610da5565b60405180910390fd5b806003015434101561039c576040517f08c379a000000000000000000000000000000000000000000000000000000000815260040161039390610e11565b60405180910390fd5b60018160000160006101000a81548160ff021916908360028111156103c4576103c3610b13565b5b02179055508060010160009054906101000a900473ffffffffffffffffffffffffffffffffffffffff1673ffffffffffffffffffffffffffffffffffffffff166323b872dd303384600201546040518463ffffffff167c010000000000000000000000000000000000000000000000000000000002815260040161044a93929190610e4f565b600060405180830381600087803b15801561046457600080fd5b505af1158015610478573d6000803e3d6000fd5b505050508060000160019054906101000a900473ffffffffffffffffffffffffffffffffffffffff1673ffffffffffffffffffffffffffffffffffffffff166108fc82600301549081150290604051600060405180830381858888f193505050501580156104ea573d6000803e3d6000fd5b507f355160d42af1f08dc00c73394c3c451d2305e914e7fc8bf14d880df0da16cf62828260000160019054906101000a900473ffffffffffffffffffffffffffffffffffffffff16338460010160009054906101000a900473ffffffffffffffffffffffffffffffffffffffff168560020154866003015460405161057496959493929190610e86565b60405180910390a15050565b60006001600083815260200190815260200160002090508060000160019054906101000a900473ffffffffffffffffffffffffffffffffffffffff1673ffffffffffffffffffffffffffffffffffffffff163373ffffffffffffffffffffffffffffffffffffffff1614610629576040517f08c379a000000000000000000000000000000000000000000000000000000000815260040161062090610f33565b60405180910390fd5b6000600281111561063d5761063c610b13565b5b8160000160009054906101000a900460ff16600281111561066157610660610b13565b5b146106a1576040517f08c379a000000000000000000000000000000000000000000000000000000000815260040161069890610da5565b60405180910390fd5b60028160000160006101000a81548160ff021916908360028111156106c9576106c8610b13565b5b02179055508060010160009054906101000a900473ffffffffffffffffffffffffffffffffffffffff1673ffffffffffffffffffffffffffffffffffffffff166323b872dd308360000160019054906101000a900473ffffffffffffffffffffffffffffffffffffffff1684600201546040518463ffffffff167c010000000000000000000000000000000000000000000000000000000002815260040161077393929190610e4f565b600060405180830381600087803b15801561078d57600080fd5b505af11580156107a1573d6000803e3d6000fd5b505050507f8dd3c361eb2366ff27c2db0eb07b9261f1d052570742ab8c9a0c326f37aa576d828260000160019054906101000a900473ffffffffffffffffffffffffffffffffffffffff166040516107fa929190610f53565b60405180910390a15050565b8273ffffffffffffffffffffffffffffffffffffffff166323b872dd3330856040518463ffffffff167c010000000000000000000000000000000000000000000000000000000002815260040161085f93929190610e4f565b600060405180830381600087803b15801561087957600080fd5b505af115801561088d573d6000803e3d6000fd5b5050505060006040518060a00160405280600060028111156108b2576108b1610b13565b5b81526020013373ffffffffffffffffffffffffffffffffffffffff1681526020018573ffffffffffffffffffffffffffffffffffffffff1681526020018481526020018381525090508060016000806000815461090e90610fab565b919050819055815260200190815260200160002060008201518160000160006101000a81548160ff0219169083600281111561094d5761094c610b13565b5b021790555060208201518160000160016101000a81548173ffffffffffffffffffffffffffffffffffffffff021916908373ffffffffffffffffffffffffffffffffffffffff16021790555060408201518160010160006101000a81548173ffffffffffffffffffffffffffffffffffffffff021916908373ffffffffffffffffffffffffffffffffffffffff16021790555060608201518160020155608082015181600301559050507f723f73331eaee88eec7fc68ef60ab6ed15e4b90d0472b55eb92fa43910bab6dd60005433868686604051610a30959493929190610ff3565b60405180910390a150505050565b6040518060a0016040528060006002811115610a5d57610a5c610b13565b5b8152602001600073ffffffffffffffffffffffffffffffffffffffff168152602001600073ffffffffffffffffffffffffffffffffffffffff16815260200160008152602001600081525090565b600080fd5b6000819050919050565b610ac381610ab0565b8114610ace57600080fd5b50565b600081359050610ae081610aba565b92915050565b600060208284031215610afc57610afb610aab565b5b6000610b0a84828501610ad1565b91505092915050565b7f4e487b7100000000000000000000000000000000000000000000000000000000600052602160045260246000fd5b60038110610b5357610b52610b13565b5b50565b6000819050610b6482610b42565b919050565b6000610b7482610b56565b9050919050565b610b8481610b69565b82525050565b600073ffffffffffffffffffffffffffffffffffffffff82169050919050565b6000610bb582610b8a565b9050919050565b610bc581610baa565b82525050565b610bd481610ab0565b82525050565b60a082016000820151610bf06000850182610b7b565b506020820151610c036020850182610bbc565b506040820151610c166040850182610bbc565b506060820151610c296060850182610bcb565b506080820151610c3c6080850182610bcb565b50505050565b600060a082019050610c576000830184610bda565b92915050565b610c6681610baa565b8114610c7157600080fd5b50565b600081359050610c8381610c5d565b92915050565b600080600060608486031215610ca257610ca1610aab565b5b6000610cb086828701610c74565b9350506020610cc186828701610ad1565b9250506040610cd286828701610ad1565b9150509250925092565b600082825260208201905092915050565b7f53656c6c65722063616e6e6f7420627579206f776e20746f6b656e0000000000600082015250565b6000610d23601b83610cdc565b9150610d2e82610ced565b602082019050919050565b60006020820190508181036000830152610d5281610d16565b9050919050565b7f4c697374696e67206973206e6f74206163746976650000000000000000000000600082015250565b6000610d8f601583610cdc565b9150610d9a82610d59565b602082019050919050565b60006020820190508181036000830152610dbe81610d82565b9050919050565b7f496e73756666696369656e742066756e64730000000000000000000000000000600082015250565b6000610dfb601283610cdc565b9150610e0682610dc5565b602082019050919050565b60006020820190508181036000830152610e2a81610dee565b9050919050565b610e3a81610baa565b82525050565b610e4981610ab0565b82525050565b6000606082019050610e646000830186610e31565b610e716020830185610e31565b610e7e6040830184610e40565b949350505050565b600060c082019050610e9b6000830189610e40565b610ea86020830188610e31565b610eb56040830187610e31565b610ec26060830186610e31565b610ecf6080830185610e40565b610edc60a0830184610e40565b979650505050505050565b7f4f6e6c792073656c6c65722063616e2063616e63656c206c697374696e670000600082015250565b6000610f1d601e83610cdc565b9150610f2882610ee7565b602082019050919050565b60006020820190508181036000830152610f4c81610f10565b9050919050565b6000604082019050610f686000830185610e40565b610f756020830184610e31565b9392505050565b7f4e487b7100000000000000000000000000000000000000000000000000000000600052601160045260246000fd5b6000610fb682610ab0565b91507fffffffffffffffffffffffffffffffffffffffffffffffffffffffffffffffff8203610fe857610fe7610f7c565b5b600182019050919050565b600060a0820190506110086000830188610e40565b6110156020830187610e31565b6110226040830186610e31565b61102f6060830185610e40565b61103c6080830184610e40565b969550505050505056fea264697066735822122000e71d979b2ca418c84b9c20f6fde984b7acffec738dadae5f09ce1f1352c56164736f6c63430008140033",
  "immutableReferences": {},
  "source": "// SPDX-License-Identifier: MIT\npragma solidity ^0.8.20;\n\nimport \"./IERC721.sol\";\n\ncontract Market {\n    enum ListingStatus {\n        Active,\n        Sold,\n        Cancelled\n    }\n    struct Listing {\n        ListingStatus status;\n        address seller;\n        address token;\n        uint tokenID;\n        uint price;\n    }\n    event Listed (\n        uint listingID,\n        address seller,\n        address token,\n        uint tokenID,\n        uint price\n    );\n    event Sale (\n        uint listingID,\n        address seller,\n        address buyer,\n        address token,\n        uint tokenID,\n        uint price\n    );\n    event Cancel (\n        uint listingID,\n        address seller\n    );\n\n    uint private _listingID = 0;\n    mapping(uint => Listing) private _listings;\n\n    function listToken(address token, uint tokenID, uint price) external {\n        IERC721(token).transferFrom(msg.sender, address(this), tokenID);\n        Listing memory listing = Listing(\n            ListingStatus.Active,\n            msg.sender,\n            token,\n            tokenID,\n            price\n        );\n\n        _listings[++_listingID] = listing;\n\n        emit Listed(_listingID, msg.sender, token, tokenID, price);\n    }\n    function getListing(uint listingID) external view returns (Listing memory) {\n        return _listings[listingID];\n    }\n\n    function buyToken(uint listingID) external payable {\n        Listing storage listing = _listings[listingID];\n        \n        require(msg.sender != listing.seller, \"Seller cannot buy own token\");\n        require(listing.status == ListingStatus.Active, \"Listing is not active\");\n\n        require(msg.value >= listing.price, \"Insufficient funds\");\n\n        listing.status = ListingStatus.Sold;\n\n        IERC721(listing.token).transferFrom(address(this), msg.sender, listing.tokenID);\n        payable(listing.seller).transfer(listing.price);\n\n        emit Sale(listingID, listing.seller, msg.sender, listing.token, listing.tokenID, listing.price);\n    }\n\n    function cancel(uint listingID) public {\n        Listing storage listing = _listings[listingID];\n\n        require(msg.sender == listing.seller, \"Only seller can cancel listing\");\n        require(listing.status == ListingStatus.Active, \"Listing is not active\");\n\n        listing.status = ListingStatus.Cancelled;\n\n        IERC721(listing.token).transferFrom(address(this), listing.seller, listing.tokenID);\n\n        emit Cancel(listingID, listing.seller);\n    }\n\n}\n",
  "sourcePath": "/Users/varunvaidya/BaB/NFT-MarketPlace/contracts/Market.sol",
  "compiler": {
    "name": "solc",
    "version": "0.8.20+commit.a1b79de6.Emscripten.clang"
  },
  "schemaVersion": "3.4.16",
  "updatedAt": "2024-04-18T07:19:08.305Z",
  "networkType": "ethereum",
  "devdoc": {
    "kind": "dev",
    "methods": {},
    "version": 1
  },
  "userdoc": {
    "kind": "user",
    "methods": {},
    "version": 1
  }
}